{
  "contractName": "Calculator",
  "abi": [
    {
      "constant": true,
      "inputs": [
        {
          "name": "a",
          "type": "uint256"
        },
        {
          "name": "b",
          "type": "uint256"
        }
      ],
      "name": "add",
      "outputs": [
        {
          "name": "c",
          "type": "uint256"
        }
      ],
      "payable": false,
      "stateMutability": "pure",
      "type": "function"
    },
    {
      "constant": true,
      "inputs": [
        {
          "name": "a",
          "type": "uint256"
        },
        {
          "name": "b",
          "type": "uint256"
        }
      ],
      "name": "sub",
      "outputs": [
        {
          "name": "c",
          "type": "uint256"
        }
      ],
      "payable": false,
      "stateMutability": "pure",
      "type": "function"
    },
    {
      "constant": true,
      "inputs": [
        {
          "name": "a",
          "type": "uint256"
        },
        {
          "name": "b",
          "type": "uint256"
        }
      ],
      "name": "mul",
      "outputs": [
        {
          "name": "c",
          "type": "uint256"
        }
      ],
      "payable": false,
      "stateMutability": "pure",
      "type": "function"
    },
    {
      "constant": true,
      "inputs": [
        {
          "name": "a",
          "type": "uint256"
        },
        {
          "name": "b",
          "type": "uint256"
        }
      ],
      "name": "div",
      "outputs": [
        {
          "name": "c",
          "type": "uint256"
        }
      ],
      "payable": false,
      "stateMutability": "pure",
      "type": "function"
    }
  ],
  "bytecode": "0x608060405234801561001057600080fd5b50610208806100206000396000f300608060405260043610610062576000357c0100000000000000000000000000000000000000000000000000000000900463ffffffff168063771602f714610067578063a391c15b146100b2578063b67d77c5146100fd578063c8a4ac9c14610148575b600080fd5b34801561007357600080fd5b5061009c6004803603810190808035906020019092919080359060200190929190505050610193565b6040518082815260200191505060405180910390f35b3480156100be57600080fd5b506100e760048036038101908080359060200190929190803590602001909291905050506101a3565b6040518082815260200191505060405180910390f35b34801561010957600080fd5b5061013260048036038101908080359060200190929190803590602001909291905050506101bc565b6040518082815260200191505060405180910390f35b34801561015457600080fd5b5061017d60048036038101908080359060200190929190803590602001909291905050506101cc565b6040518082815260200191505060405180910390f35b6000818301905080905092915050565b600081838115156101b057fe5b04905080905092915050565b6000818303905080905092915050565b60008183029050809050929150505600a165627a7a72305820949550f13d6149505e853b9ca39f2f8e47edf957964f6127124ee86d7279a2c00029",
  "source": "pragma solidity 0.4.25;\n\ncontract Calculator {\n    function add(uint a, uint b) external pure returns (uint c) {\n        c = a + b;\n        return c;\n    }\n    function sub(uint a, uint b) external pure returns (uint c) {\n        c = a - b;\n        return c;\n    }\n    function mul(uint a, uint b) external pure returns (uint c) {\n        c = a * b;\n        return c;\n    }\n    function div(uint a, uint b) external pure returns (uint c) {\n        c = a / b;\n        return c;\n    }\n}\n",
  "sourcePath": "/Users/mac/ethtest/truffle/contracts/calculator.sol",
  "compiler": {
    "name": "solc",
    "version": "0.4.25+commit.59dbf8f1.Emscripten.clang"
  },
  "schemaVersion": "2.0.2",
  "updatedAt": "2019-08-08T07:44:19.906Z"
}